{
  "contractName": "Caller",
  "abi": [
    {
      "constant": true,
      "inputs": [],
      "name": "calledAddress",
      "outputs": [
        {
          "internalType": "address",
          "name": "",
          "type": "address"
        }
      ],
      "payable": false,
      "stateMutability": "view",
      "type": "function"
    },
    {
      "constant": false,
      "inputs": [
        {
          "internalType": "address",
          "name": "_address",
          "type": "address"
        }
      ],
      "name": "setAddress",
      "outputs": [],
      "payable": false,
      "stateMutability": "nonpayable",
      "type": "function"
    },
    {
      "constant": false,
      "inputs": [
        {
          "internalType": "uint256",
          "name": "_num",
          "type": "uint256"
        }
      ],
      "name": "makeCall",
      "outputs": [],
      "payable": true,
      "stateMutability": "payable",
      "type": "function"
    }
  ],
  "bytecode": "0x608060405234801561001057600080fd5b5061038a806100206000396000f3fe6080604052600436106100345760003560e01c80637e839a3c14610039578063dccdfbec14610067578063e30081a0146100be575b600080fd5b6100656004803603602081101561004f57600080fd5b810190808035906020019092919050505061010f565b005b34801561007357600080fd5b5061007c6102ed565b604051808273ffffffffffffffffffffffffffffffffffffffff1673ffffffffffffffffffffffffffffffffffffffff16815260200191505060405180910390f35b3480156100ca57600080fd5b5061010d600480360360208110156100e157600080fd5b81019080803573ffffffffffffffffffffffffffffffffffffffff169060200190929190505050610312565b005b60008060009054906101000a900473ffffffffffffffffffffffffffffffffffffffff1673ffffffffffffffffffffffffffffffffffffffff163483604051602401808281526020019150506040516020818303038152906040527f6466414b000000000000000000000000000000000000000000000000000000007bffffffffffffffffffffffffffffffffffffffffffffffffffffffff19166020820180517bffffffffffffffffffffffffffffffffffffffffffffffffffffffff83818316178352505050506040518082805190602001908083835b6020831061020b57805182526020820191506020810190506020830392506101e8565b6001836020036101000a03801982511681845116808217855250505050505090500191505060006040518083038185875af1925050503d806000811461026d576040519150601f19603f3d011682016040523d82523d6000602084013e610272565b606091505b50509050806102e9576040517f08c379a00000000000000000000000000000000000000000000000000000000081526004018080602001828103825260148152602001807f4661696c656420746f2073656e6420457468657200000000000000000000000081525060200191505060405180910390fd5b5050565b6000809054906101000a900473ffffffffffffffffffffffffffffffffffffffff1681565b806000806101000a81548173ffffffffffffffffffffffffffffffffffffffff021916908373ffffffffffffffffffffffffffffffffffffffff1602179055505056fea265627a7a72315820888654c710bc66af69dd3ef4f6439c4deb0f0f21a5e141356f59119c868ea58964736f6c63430005100032",
  "source": "// SPDX-License-Identifier: MIT\npragma solidity ^0.5.16;\n\ncontract Caller {\n    address public calledAddress;\n\n    function setAddress(address _address) public {\n        calledAddress = _address;\n    }\n\n    function makeCall(uint _num) public payable {\n        (bool success, ) = calledAddress.call.value(msg.value)(abi.encodeWithSignature(\"setVars(uint256)\", _num));\n        require(success, \"Failed to send Ether\");\n    }\n}",
  "sourcePath": "/Users/linus/Desktop/defi/caller-called/v2/contracts/caller.sol",
  "compiler": {
    "name": "solc",
    "version": "0.5.16+commit.9c3226ce.Emscripten.clang"
  },
  "schemaVersion": "3.4.11",
  "updatedAt": "2023-04-30T12:10:47.343Z",
  "networkType": "ethereum",
  "devdoc": {
    "methods": {}
  },
  "userdoc": {
    "methods": {}
  }
}