{
  "contractName": "AccountFactory",
  "abi": [
    {
      "constant": true,
      "inputs": [],
      "name": "accountOwn",
      "outputs": [
        {
          "internalType": "contract UserAccount",
          "name": "",
          "type": "address"
        }
      ],
      "payable": false,
      "stateMutability": "view",
      "type": "function"
    },
    {
      "constant": false,
      "inputs": [],
      "name": "createAccount",
      "outputs": [],
      "payable": false,
      "stateMutability": "nonpayable",
      "type": "function"
    },
    {
      "constant": true,
      "inputs": [],
      "name": "getAccountOwner",
      "outputs": [
        {
          "internalType": "address",
          "name": "",
          "type": "address"
        }
      ],
      "payable": false,
      "stateMutability": "view",
      "type": "function"
    }
  ],
  "bytecode": "0x608060405234801561001057600080fd5b506103f7806100206000396000f3fe608060405234801561001057600080fd5b50600436106100415760003560e01c80637cc88f39146100465780639dca362f14610090578063bb2e14e91461009a575b600080fd5b61004e6100e4565b604051808273ffffffffffffffffffffffffffffffffffffffff1673ffffffffffffffffffffffffffffffffffffffff16815260200191505060405180910390f35b610098610109565b005b6100a26101aa565b604051808273ffffffffffffffffffffffffffffffffffffffff1673ffffffffffffffffffffffffffffffffffffffff16815260200191505060405180910390f35b6000809054906101000a900473ffffffffffffffffffffffffffffffffffffffff1681565b3360405161011690610253565b808273ffffffffffffffffffffffffffffffffffffffff1673ffffffffffffffffffffffffffffffffffffffff168152602001915050604051809103906000f080158015610168573d6000803e3d6000fd5b506000806101000a81548173ffffffffffffffffffffffffffffffffffffffff021916908373ffffffffffffffffffffffffffffffffffffffff160217905550565b60008060009054906101000a900473ffffffffffffffffffffffffffffffffffffffff1673ffffffffffffffffffffffffffffffffffffffff16638da5cb5b6040518163ffffffff1660e01b815260040160206040518083038186803b15801561021357600080fd5b505afa158015610227573d6000803e3d6000fd5b505050506040513d602081101561023d57600080fd5b8101908080519060200190929190505050905090565b610162806102618339019056fe608060405234801561001057600080fd5b506040516101623803806101628339818101604052602081101561003357600080fd5b8101908080519060200190929190505050806000806101000a81548173ffffffffffffffffffffffffffffffffffffffff021916908373ffffffffffffffffffffffffffffffffffffffff1602179055505060cf806100936000396000f3fe6080604052348015600f57600080fd5b506004361060285760003560e01c80638da5cb5b14602d575b600080fd5b60336075565b604051808273ffffffffffffffffffffffffffffffffffffffff1673ffffffffffffffffffffffffffffffffffffffff16815260200191505060405180910390f35b6000809054906101000a900473ffffffffffffffffffffffffffffffffffffffff168156fea265627a7a723158209b8f279dd7752b71a1ccce97dfc4092d3f2719f74e685b51953c91f00616169264736f6c63430005100032a265627a7a72315820b4ae3b82671e8258a3a2353a0687475d5c6234a794d02a23bf4e13bc099256fe64736f6c63430005100032",
  "source": "// SPDX-License-Identifier: MIT\npragma solidity ^0.5.16;\n\nimport './UserAccount.sol';\n\ncontract AccountFactory {\n  UserAccount public accountOwn;\n\n  // 先执行\n  function createAccount() public {\n    accountOwn = new UserAccount(msg.sender);\n  }\n\n  // 后执行\n  function getAccountOwner() public view returns (address) {\n    return accountOwn.owner();\n  }\n}\n\n/**\n先执行后确实会生成UserAccount的一个实例。\n可以通过这个实例调用owner方法。\n\nnew方法究竟有没有部署新的合约呢？\n为啥在ganache上看不到新部署的合约呢？\n */",
  "sourcePath": "/Users/linus/Desktop/defi/caller-called/v3/contracts/AccountFactory.sol",
  "compiler": {
    "name": "solc",
    "version": "0.5.16+commit.9c3226ce.Emscripten.clang"
  },
  "schemaVersion": "3.4.11",
  "updatedAt": "2023-05-01T06:33:48.749Z",
  "devdoc": {
    "methods": {}
  },
  "userdoc": {
    "methods": {}
  }
}