{
  "contractName": "AccountFactory",
  "abi": [
    {
      "constant": true,
      "inputs": [],
      "name": "accountOwn",
      "outputs": [
        {
          "internalType": "contract UserAccount",
          "name": "",
          "type": "address"
        }
      ],
      "payable": false,
      "stateMutability": "view",
      "type": "function"
    },
    {
      "constant": false,
      "inputs": [],
      "name": "createAccount",
      "outputs": [],
      "payable": false,
      "stateMutability": "nonpayable",
      "type": "function"
    }
  ],
  "bytecode": "0x608060405234801561001057600080fd5b506102f9806100206000396000f3fe608060405234801561001057600080fd5b50600436106100365760003560e01c80637cc88f391461003b5780639dca362f14610085575b600080fd5b61004361008f565b604051808273ffffffffffffffffffffffffffffffffffffffff1673ffffffffffffffffffffffffffffffffffffffff16815260200191505060405180910390f35b61008d6100b4565b005b6000809054906101000a900473ffffffffffffffffffffffffffffffffffffffff1681565b336040516100c190610155565b808273ffffffffffffffffffffffffffffffffffffffff1673ffffffffffffffffffffffffffffffffffffffff168152602001915050604051809103906000f080158015610113573d6000803e3d6000fd5b506000806101000a81548173ffffffffffffffffffffffffffffffffffffffff021916908373ffffffffffffffffffffffffffffffffffffffff160217905550565b610162806101638339019056fe608060405234801561001057600080fd5b506040516101623803806101628339818101604052602081101561003357600080fd5b8101908080519060200190929190505050806000806101000a81548173ffffffffffffffffffffffffffffffffffffffff021916908373ffffffffffffffffffffffffffffffffffffffff1602179055505060cf806100936000396000f3fe6080604052348015600f57600080fd5b506004361060285760003560e01c80638da5cb5b14602d575b600080fd5b60336075565b604051808273ffffffffffffffffffffffffffffffffffffffff1673ffffffffffffffffffffffffffffffffffffffff16815260200191505060405180910390f35b6000809054906101000a900473ffffffffffffffffffffffffffffffffffffffff168156fea265627a7a723158209b8f279dd7752b71a1ccce97dfc4092d3f2719f74e685b51953c91f00616169264736f6c63430005100032a265627a7a72315820157dfb89c7e02dcd87078c3f01a499850557b6a4efb5bf3faee14701ee9a4b8164736f6c63430005100032",
  "source": "// SPDX-License-Identifier: MIT\npragma solidity ^0.5.16;\n\nimport './UserAccount.sol';\n\ncontract AccountFactory {\n  UserAccount public accountOwn;\n\n  function createAccount() public {\n    accountOwn = new UserAccount(msg.sender);\n  }\n}\n",
  "sourcePath": "/Users/linus/Desktop/defi/caller-called/v3/contracts/AccountFactory.sol",
  "compiler": {
    "name": "solc",
    "version": "0.5.16+commit.9c3226ce.Emscripten.clang"
  },
  "schemaVersion": "3.4.11",
  "updatedAt": "2023-04-30T17:09:36.434Z",
  "networkType": "ethereum",
  "devdoc": {
    "methods": {}
  },
  "userdoc": {
    "methods": {}
  }
}