{
  "contractName": "Caller",
  "abi": [
    {
      "inputs": [
        {
          "internalType": "address",
          "name": "_calledAddress",
          "type": "address"
        }
      ],
      "payable": false,
      "stateMutability": "nonpayable",
      "type": "constructor"
    },
    {
      "constant": false,
      "inputs": [
        {
          "internalType": "uint256",
          "name": "_num",
          "type": "uint256"
        }
      ],
      "name": "makeCall",
      "outputs": [],
      "payable": true,
      "stateMutability": "payable",
      "type": "function"
    }
  ],
  "bytecode": "0x608060405234801561001057600080fd5b506040516102f83803806102f88339818101604052602081101561003357600080fd5b8101908080519060200190929190505050806000806101000a81548173ffffffffffffffffffffffffffffffffffffffff021916908373ffffffffffffffffffffffffffffffffffffffff16021790555050610264806100946000396000f3fe60806040526004361061001e5760003560e01c80637e839a3c14610023575b600080fd5b61004f6004803603602081101561003957600080fd5b8101908080359060200190929190505050610051565b005b60008060009054906101000a900473ffffffffffffffffffffffffffffffffffffffff1673ffffffffffffffffffffffffffffffffffffffff163483604051602401808281526020019150506040516020818303038152906040527f6466414b000000000000000000000000000000000000000000000000000000007bffffffffffffffffffffffffffffffffffffffffffffffffffffffff19166020820180517bffffffffffffffffffffffffffffffffffffffffffffffffffffffff83818316178352505050506040518082805190602001908083835b6020831061014d578051825260208201915060208101905060208303925061012a565b6001836020036101000a03801982511681845116808217855250505050505090500191505060006040518083038185875af1925050503d80600081146101af576040519150601f19603f3d011682016040523d82523d6000602084013e6101b4565b606091505b505090508061022b576040517f08c379a00000000000000000000000000000000000000000000000000000000081526004018080602001828103825260148152602001807f4661696c656420746f2073656e6420457468657200000000000000000000000081525060200191505060405180910390fd5b505056fea265627a7a72315820f64ea76734444ea52e4c331565ebe33b7748259475399a96706a875fd49c1d6b64736f6c63430005100032",
  "source": "// SPDX-License-Identifier: MIT\npragma solidity ^0.5.16;\n\ncontract Caller {\n    address private calledAddress;\n\n    constructor(address _calledAddress) public {\n        calledAddress = _calledAddress;\n    }\n\n    function makeCall(uint _num) public payable {\n        (bool success, ) = calledAddress.call.value(msg.value)(abi.encodeWithSignature(\"setVars(uint256)\", _num));\n        require(success, \"Failed to send Ether\");\n    }\n}",
  "sourcePath": "/Users/linus/Desktop/defi/caller-called/contracts/caller.sol",
  "compiler": {
    "name": "solc",
    "version": "0.5.16+commit.9c3226ce.Emscripten.clang"
  },
  "schemaVersion": "3.4.11",
  "updatedAt": "2023-04-30T11:44:08.940Z",
  "networkType": "ethereum",
  "devdoc": {
    "methods": {}
  },
  "userdoc": {
    "methods": {}
  }
}